{
  "_format": "hh-sol-artifact-1",
  "contractName": "Listing_01",
  "sourceName": "hardhat/contracts/Listing_01.sol",
  "abi": [
    {
      "inputs": [],
      "stateMutability": "nonpayable",
      "type": "constructor"
    },
    {
      "inputs": [],
      "name": "fund",
      "outputs": [],
      "stateMutability": "payable",
      "type": "function"
    },
    {
      "inputs": [],
      "name": "getBalance",
      "outputs": [
        {
          "internalType": "uint256",
          "name": "",
          "type": "uint256"
        }
      ],
      "stateMutability": "view",
      "type": "function"
    },
    {
      "inputs": [
        {
          "internalType": "uint256",
          "name": "index",
          "type": "uint256"
        }
      ],
      "name": "getFunder",
      "outputs": [
        {
          "internalType": "address",
          "name": "",
          "type": "address"
        }
      ],
      "stateMutability": "view",
      "type": "function"
    },
    {
      "inputs": [],
      "name": "getOwner",
      "outputs": [
        {
          "internalType": "address",
          "name": "",
          "type": "address"
        }
      ],
      "stateMutability": "view",
      "type": "function"
    },
    {
      "inputs": [
        {
          "internalType": "uint256",
          "name": "_amount",
          "type": "uint256"
        }
      ],
      "name": "withdraw",
      "outputs": [],
      "stateMutability": "nonpayable",
      "type": "function"
    }
  ],
  "bytecode": "0x608060405234801561001057600080fd5b5033600160006101000a81548173ffffffffffffffffffffffffffffffffffffffff021916908373ffffffffffffffffffffffffffffffffffffffff16021790555061066a806100616000396000f3fe60806040526004361061004a5760003560e01c806312065fe01461004f5780632e1a7d4d1461007a578063893d20e8146100a3578063b60d4288146100ce578063d7b4750c146100d8575b600080fd5b34801561005b57600080fd5b50610064610115565b6040516100719190610395565b60405180910390f35b34801561008657600080fd5b506100a1600480360381019061009c91906103e1565b61011d565b005b3480156100af57600080fd5b506100b861025d565b6040516100c5919061044f565b60405180910390f35b6100d6610287565b005b3480156100e457600080fd5b506100ff60048036038101906100fa91906103e1565b610335565b60405161010c919061044f565b60405180910390f35b600047905090565b600160009054906101000a900473ffffffffffffffffffffffffffffffffffffffff1673ffffffffffffffffffffffffffffffffffffffff163373ffffffffffffffffffffffffffffffffffffffff16146101ad576040517f08c379a00000000000000000000000000000000000000000000000000000000081526004016101a4906104c7565b60405180910390fd5b60003373ffffffffffffffffffffffffffffffffffffffff16826040516101d390610518565b60006040518083038185875af1925050503d8060008114610210576040519150601f19603f3d011682016040523d82523d6000602084013e610215565b606091505b5050905080610259576040517f08c379a000000000000000000000000000000000000000000000000000000000815260040161025090610579565b60405180910390fd5b5050565b6000600160009054906101000a900473ffffffffffffffffffffffffffffffffffffffff16905090565b662386f26fc1000034146102d0576040517f08c379a00000000000000000000000000000000000000000000000000000000081526004016102c7906105e5565b60405180910390fd5b6000339080600181540180825580915050600190039060005260206000200160009091909190916101000a81548173ffffffffffffffffffffffffffffffffffffffff021916908373ffffffffffffffffffffffffffffffffffffffff160217905550565b600080828154811061034a57610349610605565b5b9060005260206000200160009054906101000a900473ffffffffffffffffffffffffffffffffffffffff169050919050565b6000819050919050565b61038f8161037c565b82525050565b60006020820190506103aa6000830184610386565b92915050565b600080fd5b6103be8161037c565b81146103c957600080fd5b50565b6000813590506103db816103b5565b92915050565b6000602082840312156103f7576103f66103b0565b5b6000610405848285016103cc565b91505092915050565b600073ffffffffffffffffffffffffffffffffffffffff82169050919050565b60006104398261040e565b9050919050565b6104498161042e565b82525050565b60006020820190506104646000830184610440565b92915050565b600082825260208201905092915050565b7f4f6e6c79206f776e65722063616e207769746864726177000000000000000000600082015250565b60006104b160178361046a565b91506104bc8261047b565b602082019050919050565b600060208201905081810360008301526104e0816104a4565b9050919050565b600081905092915050565b50565b60006105026000836104e7565b915061050d826104f2565b600082019050919050565b6000610523826104f5565b9150819050919050565b7f4661696c656420746f2073656e64204574686572000000000000000000000000600082015250565b600061056360148361046a565b915061056e8261052d565b602082019050919050565b6000602082019050818103600083015261059281610556565b9050919050565b7f4d7573742073656e6420302e303120657468657220616d6f756e740000000000600082015250565b60006105cf601b8361046a565b91506105da82610599565b602082019050919050565b600060208201905081810360008301526105fe816105c2565b9050919050565b7f4e487b7100000000000000000000000000000000000000000000000000000000600052603260045260246000fdfea2646970667358221220f081b07f8da20545d3722b459a44fdba36df7b2d407f461c3ebd41fbf75d68b764736f6c634300080d0033",
  "linkReferences": {},
  "deployedLinkReferences": {}
}