{
  "_format": "hh-sol-artifact-1",
  "contractName": "Hello",
  "sourceName": "hardhat/contracts/HelloWorld.sol",
  "abi": [
    {
      "inputs": [],
      "name": "nameToString",
      "outputs": [
        {
          "internalType": "string",
          "name": "",
          "type": "string"
        }
      ],
      "stateMutability": "view",
      "type": "function"
    },
    {
      "inputs": [],
      "name": "retrieve",
      "outputs": [
        {
          "internalType": "uint256",
          "name": "",
          "type": "uint256"
        }
      ],
      "stateMutability": "view",
      "type": "function"
    },
    {
      "inputs": [
        {
          "internalType": "uint256",
          "name": "_number",
          "type": "uint256"
        }
      ],
      "name": "store",
      "outputs": [],
      "stateMutability": "nonpayable",
      "type": "function"
    }
  ],
  "bytecode": "0x608060405234801561001057600080fd5b50610300806100206000396000f3fe608060405234801561001057600080fd5b50600436106100415760003560e01c80632e64cec1146100465780636057361d1461006457806365f191fe14610080575b600080fd5b61004e61009e565b60405161005b9190610196565b60405180910390f35b61007e600480360381019061007991906101e2565b6100a7565b005b6100886100b1565b60405161009591906102a8565b60405180910390f35b60008054905090565b8060008190555050565b60606001600054036100fa576040518060400160405280601181526020017f696e707574206e756d6265722069732031000000000000000000000000000000815250905061017a565b600260005403610141576040518060400160405280601181526020017f696e707574206e756d6265722069732032000000000000000000000000000000815250905061017a565b6040518060400160405280601e81526020017f696e707574206e756d6265722069732067726561746572207468616e2032000081525090505b90565b6000819050919050565b6101908161017d565b82525050565b60006020820190506101ab6000830184610187565b92915050565b600080fd5b6101bf8161017d565b81146101ca57600080fd5b50565b6000813590506101dc816101b6565b92915050565b6000602082840312156101f8576101f76101b1565b5b6000610206848285016101cd565b91505092915050565b600081519050919050565b600082825260208201905092915050565b60005b8381101561024957808201518184015260208101905061022e565b83811115610258576000848401525b50505050565b6000601f19601f8301169050919050565b600061027a8261020f565b610284818561021a565b935061029481856020860161022b565b61029d8161025e565b840191505092915050565b600060208201905081810360008301526102c2818461026f565b90509291505056fea2646970667358221220771f3042040a30d1f904a1ef23818e0abc4c3f331daeeb518340a9eb335a4c3a64736f6c634300080d0033",
  "linkReferences": {},
  "deployedLinkReferences": {}
}