{
  "_format": "hh-sol-artifact-1",
  "contractName": "LaunchpadTestV2",
  "sourceName": "hardhat/contracts/LaunchpadTestV2.sol",
  "abi": [
    {
      "inputs": [],
      "stateMutability": "nonpayable",
      "type": "constructor"
    },
    {
      "inputs": [],
      "name": "fund",
      "outputs": [],
      "stateMutability": "payable",
      "type": "function"
    },
    {
      "inputs": [],
      "name": "getBalance",
      "outputs": [
        {
          "internalType": "uint256",
          "name": "",
          "type": "uint256"
        }
      ],
      "stateMutability": "view",
      "type": "function"
    },
    {
      "inputs": [
        {
          "internalType": "uint256",
          "name": "index",
          "type": "uint256"
        }
      ],
      "name": "getFunder",
      "outputs": [
        {
          "internalType": "address",
          "name": "",
          "type": "address"
        }
      ],
      "stateMutability": "view",
      "type": "function"
    },
    {
      "inputs": [],
      "name": "getOwner",
      "outputs": [
        {
          "internalType": "address",
          "name": "",
          "type": "address"
        }
      ],
      "stateMutability": "view",
      "type": "function"
    },
    {
      "inputs": [
        {
          "internalType": "uint256",
          "name": "_amount",
          "type": "uint256"
        }
      ],
      "name": "withdraw",
      "outputs": [],
      "stateMutability": "nonpayable",
      "type": "function"
    }
  ],
  "bytecode": "0x608060405234801561001057600080fd5b5033600160006101000a81548173ffffffffffffffffffffffffffffffffffffffff021916908373ffffffffffffffffffffffffffffffffffffffff16021790555061066b806100616000396000f3fe60806040526004361061004a5760003560e01c806312065fe01461004f5780632e1a7d4d1461007a578063893d20e8146100a3578063b60d4288146100ce578063d7b4750c146100d8575b600080fd5b34801561005b57600080fd5b50610064610115565b6040516100719190610396565b60405180910390f35b34801561008657600080fd5b506100a1600480360381019061009c91906103e2565b61011d565b005b3480156100af57600080fd5b506100b861025d565b6040516100c59190610450565b60405180910390f35b6100d6610287565b005b3480156100e457600080fd5b506100ff60048036038101906100fa91906103e2565b610336565b60405161010c9190610450565b60405180910390f35b600047905090565b600160009054906101000a900473ffffffffffffffffffffffffffffffffffffffff1673ffffffffffffffffffffffffffffffffffffffff163373ffffffffffffffffffffffffffffffffffffffff16146101ad576040517f08c379a00000000000000000000000000000000000000000000000000000000081526004016101a4906104c8565b60405180910390fd5b60003373ffffffffffffffffffffffffffffffffffffffff16826040516101d390610519565b60006040518083038185875af1925050503d8060008114610210576040519150601f19603f3d011682016040523d82523d6000602084013e610215565b606091505b5050905080610259576040517f08c379a00000000000000000000000000000000000000000000000000000000081526004016102509061057a565b60405180910390fd5b5050565b6000600160009054906101000a900473ffffffffffffffffffffffffffffffffffffffff16905090565b67016345785d8a000034146102d1576040517f08c379a00000000000000000000000000000000000000000000000000000000081526004016102c8906105e6565b60405180910390fd5b6000339080600181540180825580915050600190039060005260206000200160009091909190916101000a81548173ffffffffffffffffffffffffffffffffffffffff021916908373ffffffffffffffffffffffffffffffffffffffff160217905550565b600080828154811061034b5761034a610606565b5b9060005260206000200160009054906101000a900473ffffffffffffffffffffffffffffffffffffffff169050919050565b6000819050919050565b6103908161037d565b82525050565b60006020820190506103ab6000830184610387565b92915050565b600080fd5b6103bf8161037d565b81146103ca57600080fd5b50565b6000813590506103dc816103b6565b92915050565b6000602082840312156103f8576103f76103b1565b5b6000610406848285016103cd565b91505092915050565b600073ffffffffffffffffffffffffffffffffffffffff82169050919050565b600061043a8261040f565b9050919050565b61044a8161042f565b82525050565b60006020820190506104656000830184610441565b92915050565b600082825260208201905092915050565b7f4f6e6c79206f776e65722063616e207769746864726177000000000000000000600082015250565b60006104b260178361046b565b91506104bd8261047c565b602082019050919050565b600060208201905081810360008301526104e1816104a5565b9050919050565b600081905092915050565b50565b60006105036000836104e8565b915061050e826104f3565b600082019050919050565b6000610524826104f6565b9150819050919050565b7f4661696c656420746f2073656e64204574686572000000000000000000000000600082015250565b600061056460148361046b565b915061056f8261052e565b602082019050919050565b6000602082019050818103600083015261059381610557565b9050919050565b7f4d7573742073656e6420302e3120657468657220616d6f756e74000000000000600082015250565b60006105d0601a8361046b565b91506105db8261059a565b602082019050919050565b600060208201905081810360008301526105ff816105c3565b9050919050565b7f4e487b7100000000000000000000000000000000000000000000000000000000600052603260045260246000fdfea2646970667358221220d90c05c70207b6b3a0c998220516a7af9c7879691463e431311c5e4bcfce589d64736f6c634300080d0033",
  "linkReferences": {},
  "deployedLinkReferences": {}
}